:100000000C942A000C9478010C949E010C944700E7
:100010000C9447000C9447000C9447000C94470044
:100020000C9447000C9447000C94C5010C944700B5
:100030000C9447000C9447000C9447000C94470024
:100040000C9447000C9447000C9447000C94470014
:100050000C94470011241FBECFE5D8E0DEBFCDBF12
:1000600010E0A0E6B0E0E4EFF1E102C005900D92EF
:10007000AA3CB107D9F710E0AAECB0E001C01D928C
:10008000A63DB107E1F70E9415020C94F8080C9404
:10009000000084B38F7084BBC19AC09881E08A95B8
:1000A000F1F721E0C29A822F8A95F1F783B3807F1E
:1000B000922F9A95F1F7C298922F9A95F1F7C29ADA
:1000C000922F9A95F1F793B3922F9A95F1F7C298E0
:1000D000922F9A95F1F787FDE5CFC19884B3806F91
:1000E00084BB0895382F662311F4C09801C0C09ACC
:1000F00021E0822F8A95F1F7C29A85B3932F907FE2
:100100008F70982B95BB822F8A95F1F7C298822F1A
:100110008A95F1F7C29A85B33295307F8F70832B21
:1001200085BB822F8A95F1F7C2982A95F1F70E9434
:1001300049000895CF93DF93EC0110C0853251F44C
:10014000219688818053883028F085E261E00E9402
:100150007200888161E00E94720021968881882364
:1001600069F7DF91CF910895EF92FF920F931F935C
:10017000DF93CF9300D000D00F92CDB7DEB79C01B4
:100180008B01FE01319685E0DF011D928A95E9F72A
:10019000FE0135960DC0C9016AE070E00E94D005ED
:1001A0008083C9016AE070E00E94D0059B0131970D
:1001B0002115310581F7BFEF0F3F1B0779F420E0D0
:1001C00030E0AE014F5F5F4F02C02F5F3F4FFA013B
:1001D000E20FF31F80818823C1F304C025E030E0E3
:1001E000201B310B7E010894E11CF11CE20EF31E72
:1001F000890109C0F70181917F01805D61E00E9462
:1002000072000F5F1F4F05301105A4F30F900F9080
:100210000F900F900F90CF91DF911F910F91FF9052
:10022000EF900895843178F4623031F0633031F02A
:10023000613029F4806403C08C5E01C08C5A8068F0
:1002400060E00E94720008951F93CF93DF93182FF0
:1002500088E99AE30197F1F784B3806F84BBBA9A77
:10026000B89AB99A85B38F7085BBC298C198C09867
:1002700081E0982F9A95F1F7C29AAD9A982F9A95A6
:10028000F1F7C2988A95F1F70E944900812F8C609E
:1002900060E00E94720088E260E00E94720080E4E8
:1002A00060E00E947200CCE8D0E0899161E00E9499
:1002B000720080E0C43CD807C1F780E090E060E0C5
:1002C00070E00E941201DF91CF911F91089582E4A6
:1002D00087B987E886B90895369A3699FECF24B152
:1002E00045B1942F80E030E0282B392BC9010895C7
:1002F0001F920F920FB60F9211248F939F938091AC
:10030000C4009091C5008130910519F482E090E01D
:1003100004C0029731F481E090E09093C50080938F
:10032000C4009F918F910F900FBE0F901F90189552
:100330008FE085BF80EC8BBF789408951F920F9259
:100340000FB60F9211241092CF001092CE0010928F
:10035000D1001092D0000F900FBE0F901F901895F3
:100360008AE083BF12BE8AEF8CBF8091C400909157
:10037000C5008230910521F489B7826089BF03C02E
:10038000019709F419BE789408951F920F920FB641
:100390000F9211242F933F935F936F937F938F93CB
:1003A0009F93AF93BF938091CA009091CB00019629
:1003B0009093CB008093CA008436910569F48091B4
:1003C000D0009091D10001969093D1008093D000FD
:1003D0001092CB001092CA002091D0003091D10031
:1003E000C90168E572E00E94BC05892B81F4232BCA
:1003F00071F08091CE009091CF0088519C4F9093E6
:10040000CF008093CE001092D1001092D000BF9107
:10041000AF919F918F917F916F915F913F912F91BC
:100420000F900FBE0F901F9018952F923F924F92F2
:100430005F926F927F928F929F92AF92BF92CF9274
:10044000DF92EF92FF920F931F93DF93CF93CDB77D
:10045000DEB72A970FB6F894DEBF0FBECDBF81E09E
:100460000E94240182E487B987E886B98E988F9824
:100470008D988C98889A81E082BBD498D3985FE05D
:10048000352E40EC242E5E010894A11CB11C35E6EB
:10049000632E30E0732E2FED422E512C92E3C92EA5
:1004A000D12C80E5882E83EC982E35BE2BBE789417
:1004B0000E94B001869B9DC0CC9B10C08091C8005B
:1004C0009091C90001969093C9008093C8008CEA6E
:1004D0009DE0F6013197F1F70197D9F7CB9B12C058
:1004E0008091C8009091C900009761F001979093A6
:1004F000C9008093C8008CEA9DE0F6013197F1F7BE
:100500000197D9F781E060E00E94720081E060E02D
:100510000E94120180E690E00E949A0080E00E9412
:100520006C01AA2797FDA095BA2FBC01CD010E94AE
:10053000AE0426EF38E24CE950E40E943A0520E090
:1005400030E040E251E40E9413040E947B049B01CE
:10055000AC018091C8009091C9008217930708F000
:1005600046C081E082BB8DB79EB708970FB6F8945E
:100570009EBF0FBE8DBFEDB7FEB73196ADB7BEB70C
:100580001296BC92AE921197738262823583248355
:10059000578246820E942006EDB7FEB738960FB606
:1005A000F894FEBF0FBEEDBF86E060E00E9412012E
:1005B000C5010E949A008AE060E00E9412018DE667
:1005C00090E00E949A008BE060E00E94120180910E
:1005D000C8009091C90062E070E00E94B40080E120
:1005E00097E2F6013197F1F70197D9F75ECF12BA8A
:1005F0005CCF849B1AC08091D2009091D300A091CF
:10060000D400B091D5000196A11DB11D8093D200F8
:100610009093D300A093D400B093D5008CEA9DE0D2
:10062000F6013197F1F70197D9F7859B1EC08091AC
:10063000D2009091D300A091D400B091D500009742
:10064000A105B10591F00197A109B1098093D200EC
:100650009093D300A093D400B093D5008CEA9DE092
:10066000F6013197F1F70197D9F781E060E00E9438
:10067000720080E061E00E9412016091CE007091F2
:10068000CF002091D0003091D100620F731F80E025
:1006900090E020EA36E841E050E00E94E30528EED1
:1006A00033E040E050E00E94E305DA01C90162E076
:1006B00070E00E94B40082E061E00E9412018FE6C7
:1006C00090E00E949A0083E061E00E941201609134
:1006D000CE007091CF002091D0003091D100620FF8
:1006E000731F80E090E020EA36E841E050E00E948D
:1006F000E3052AE030E040E050E00E94E305CA0153
:10070000B90124E630E040E050E00E94E305DC015E
:10071000CB0162E070E00E94B40085E061E00E94DD
:1007200012018FE690E00E949A0086E061E00E944C
:1007300012018091CE009091CF002091D000309195
:10074000D100820F931F6AE070E00E94BC0561E057
:1007500070E00E94B4008091D2009091D300A091EB
:10076000D400B091D5000097A105B105B9F182E0A0
:1007700060E00E94120181E790E00E949A00E09000
:10078000CE00F090CF0000E010E06091D2007091B8
:10079000D3008091D4009091D50028EE33E040E062
:1007A00050E00E949D05E616F70608071907B1F408
:1007B00081E090E09093C5008093C4001092CF0038
:1007C0001092CE001092D1001092D00084E060E030
:1007D0000E9412018FE790E00E949A0089E061E098
:1007E0000E9412018DE690E00E949A008AE061E08A
:1007F0000E9412018091D2009091D30062E070E0DB
:100800000E94B4008CE061E00E94120188E890E050
:100810000E949A00C4010197F1F78AE0D5011D9268
:100820008A95E9F742CE0CD0EBC0E3D040F0DAD0A5
:1008300030F021F45F3F19F0CCC0511115C1CFC089
:10084000F0D098F39923C9F35523B1F3951B550BB9
:10085000BB27AA2762177307840738F09F5F5F4F93
:10086000220F331F441FAA1FA9F333D00E2E3AF0D4
:10087000E0E830D091505040E695001CCAF729D0EE
:10088000FE2F27D0660F771F881FBB1F261737073D
:100890004807AB07B0E809F0BB0B802DBF01FF276D
:1008A00093585F4F2AF09E3F510568F092C0DCC01C
:1008B0005F3FECF3983EDCF3869577956795B795A7
:1008C000F7959F5FC9F7880F911D9695879597F9C2
:1008D0000895E1E0660F771F881FBB1F621773073B
:1008E0008407BA0720F0621B730B840BBA0BEE1F50
:1008F00088F7E095089504D06894B111B5C00895C3
:1009000098D088F09F5790F0B92F9927B751A0F051
:10091000D1F0660F771F881F991F1AF0BA95C9F793
:1009200012C0B13081F09FD0B1E008959CC0672F14
:10093000782F8827B85F39F0B93FCCF38695779543
:100940006795B395D9F73EF490958095709561952C
:100950007F4F8F4F9F4F0895E89409C097FB3EF457
:1009600090958095709561957F4F8F4F9F4F9923FC
:10097000A9F0F92F96E9BB279395F695879577957A
:100980006795B795F111F8CFFAF4BB0F11F460FF3A
:100990001BC06F5F7F4F8F4F9F4F16C0882311F092
:1009A00096E911C0772321F09EE8872F762F05C0A6
:1009B000662371F096E8862F70E060E02AF09A9541
:1009C000660F771F881FDAF7880F9695879597F936
:1009D000089597F99F6780E870E060E008959FEFC1
:1009E00080EC089500240A941616170618060906C6
:1009F000089500240A941216130614060506089595
:100A0000092E0394000C11F4882352F0BB0F40F41C
:100A1000BF2B11F460FF04C06F5F7F4F8F4F9F4F5C
:100A2000089557FD9058440F551F59F05F3F71F0DE
:100A30004795880F97FB991F61F09F3F79F0879545
:100A40000895121613061406551FF2CF4695F1DFCE
:100A500008C0161617061806991FF1CF869571055E
:100A6000610508940895E894BB2766277727CB0192
:100A700097F908950BD0C4CFB5DF28F0BADF18F08E
:100A8000952309F0A6CFABCF1124EECFCADFA0F398
:100A9000959FD1F3950F50E0551F629FF001729F13
:100AA000BB27F00DB11D639FAA27F00DB11DAA1F32
:100AB000649F6627B00DA11D661F829F2227B00D7F
:100AC000A11D621F739FB00DA11D621F839FA00D0A
:100AD000611D221F749F3327A00D611D231F849F5A
:100AE000600D211D822F762F6A2F11249F575040B1
:100AF0008AF0E1F088234AF0EE0FFF1FBB1F661F4C
:100B0000771F881F91505040A9F79E3F510570F004
:100B100060CFAACF5F3FECF3983EDCF386957795E4
:100B20006795B795F795E7959F5FC1F7FE2B880FFF
:100B3000911D9695879597F90895629FD001739FAF
:100B4000F001829FE00DF11D649FE00DF11D929F69
:100B5000F00D839FF00D749FF00D659FF00D9927A8
:100B6000729FB00DE11DF91F639FB00DE11DF91FCC
:100B7000BD01CF0111240895AA1BBB1B51E107C081
:100B8000AA1FBB1FA617B70710F0A61BB70B881F1D
:100B9000991F5A95A9F780959095BC01CD010895AC
:100BA00097FB092E07260AD077FD04D0E5DF06D093
:100BB00000201AF4709561957F4F0895F6F790958F
:100BC00081959F4F089597FB092E05260ED057FD5E
:100BD00004D014D00AD0001C38F4509540953095BC
:100BE00021953F4F4F4F5F4F0895F6F790958095B1
:100BF000709561957F4F8F4F9F4F0895A1E21A2EF8
:100C0000AA1BBB1BFD010DC0AA1FBB1FEE1FFF1FB0
:100C1000A217B307E407F50720F0A21BB30BE40B00
:100C2000F50B661F771F881F991F1A9469F7609547
:100C30007095809590959B01AC01BD01CF01089501
:100C4000AEE0B0E0E6E2F6E00C94CF080D891E8934
:100C500086E08C831A8309838FEF9FE79E838D83C1
:100C60009E01275E3F4FCE0101966F89788DA901C5
:100C70000E9444062F813885020F131FF80110824D
:100C80002E96E4E00C94EB08ABE0B0E0EAE4F6E08A
:100C90000C94C1083C012B015A01FC0117821682F9
:100CA000838181FD03C06FEF7FEFC6C19AE0892E7B
:100CB0001E010894211C311CF3012381F20123FD44
:100CC000859123FF81912F01882309F4B2C18532D8
:100CD00039F423FD859123FF81912F01853229F479
:100CE00090E0B3010E943708E7CF982FFF24EE244D
:100CF0009924FFE1FF15D0F09B3269F09C3228F473
:100D0000903259F0933291F40EC09D3249F09033F5
:100D100069F441E024C052E0F52A84E0F82A28C0B2
:100D200098E0F92A25C0E0E1FE2A22C0F7FC29C09C
:100D3000892F80538A3070F4F6FE05C0989C902C61
:100D40001124980E15C0E89CE02C1124E80EF0E266
:100D5000FF2A0EC09E3229F4F6FC6BC140E4F42A4F
:100D600007C09C3619F450E8F52A02C0983649F4B9
:100D7000F20123FD959123FF91912F01992309F011
:100D8000B8CF892F8554833018F08052833038F4DF
:100D900044E050E0A40EB51E5FE359830FC09336C4
:100DA00031F0933779F0933509F056C020C0F50142
:100DB0008081898342E050E0A40EB51E610101E00C
:100DC00010E012C0F501C080D180F6FC03C06FEFC7
:100DD0007FEF02C0692D70E042E050E0A40EB51E26
:100DE000C6010E942C088C015FE7F52214C0F501B2
:100DF000C080D180F6FC03C06FEF7FEF02C0692D89
:100E000070E042E050E0A40EB51EC6010E94210829
:100E10008C0150E8F52AF3FE07C01AC080E290E08A
:100E2000B3010E943708EA948E2D90E00817190745
:100E3000A8F30EC0F601F7FC8591F7FE81916F01D2
:100E400090E0B3010E943708E110EA94015010408D
:100E50000115110579F7EAC0943611F0993669F554
:100E6000F7FE08C0F501208131814281538184E081
:100E700090E00AC0F501808191819C01442737FDF3
:100E80004095542F82E090E0A80EB91E9FE6F9220B
:100E900057FF09C050954095309521953F4F4F4FD2
:100EA0005F4FE0E8FE2ACA01B901A1012AE030E063
:100EB0000E946308D82ED21840C0953729F41F2D00
:100EC0001F7E2AE030E01DC01F2D197F9F3661F084
:100ED000903720F4983509F0ACC00FC0903739F046
:100EE000983709F0A6C004C028E030E00AC01061BD
:100EF00014FD146020E130E004C014FD166020E110
:100F000032E017FF08C0F501608171818281938111
:100F100044E050E008C0F50180819181BC0180E08F
:100F200090E042E050E0A40EB51EA1010E946308CB
:100F3000D82ED2188FE7F82EF122F6FE0BC05EEF06
:100F4000F522D91438F4F4FE07C0F2FC05C08FEE88
:100F5000F82202C01D2D01C0192DF4FE0DC0FE01A6
:100F6000ED0DF11D8081803319F499EEF92208C04E
:100F70001F5FF2FE05C003C08F2D867809F01F5F4A
:100F80000F2DF3FC14C0F0FE0FC01E1510F09D2CA9
:100F90000BC09D2C9E0C911A1E2D06C080E290E085
:100FA000B3010E9437081F5F1E15C0F304C01E1551
:100FB00010F4E11A01C0EE2404FF0FC080E390E0BA
:100FC000B3010E94370802FF1DC001FD03C088E77E
:100FD00090E00EC088E590E00BC0802F867891F0FD
:100FE00001FF02C08BE201C080E2F7FC8DE290E0DD
:100FF000B3010E94370806C080E390E0B3010E946D
:1010000037089A94D914C0F3DA94F101ED0DF11D6B
:10101000808190E0B3010E943708DD20A9F706C067
:1010200080E290E0B3010E943708EA94EE20C1F715
:1010300043CEF30166817781CB012B96E2E10C94DC
:10104000DD08FC010590615070400110D8F78095D3
:1010500090958E0F9F1F0895FC0161507040019084
:101060000110D8F7809590958E0F9F1F08950F93CC
:101070001F93CF93DF938C01EB018B8181FF1BC00A
:1010800082FF0DC02E813F818C819D8128173907F9
:1010900064F4E881F9810193F983E88306C0E88567
:1010A000F985802F0995892B31F48E819F810196D6
:1010B0009F838E8302C00FEF1FEFC801DF91CF9196
:1010C0001F910F910895FA01AA27283051F120317C
:1010D00081F1E8946F936E7F6E5F7F4F8F4F9F4FCC
:1010E000AF4FB1E03ED0B4E03CD0670F781F891F0E
:1010F0009A1FA11D680F791F8A1F911DA11D6A0FDC
:10110000711D811D911DA11D20D009F468943F918E
:101110002AE0269F11243019305D3193DEF6CF018D
:101120000895462F4770405D4193B3E00FD0C9F753
:10113000F6CF462F4F70405D4A3318F0495D31FDC0
:101140004052419302D0A9F7EACFB4E0A695979513
:10115000879577956795BA95C9F7009761057105E9
:1011600008959B01AC010A2E069457954795379533
:101170002795BA95C9F7620F731F841F951FA01D8D
:1011800008952F923F924F925F926F927F928F922B
:101190009F92AF92BF92CF92DF92EF92FF920F9306
:1011A0001F93CF93DF93CDB7DEB7CA1BDB0B0FB610
:1011B000F894DEBF0FBECDBF09942A8839884888CD
:1011C0005F846E847D848C849B84AA84B984C88463
:1011D000DF80EE80FD800C811B81AA81B981CE0F5A
:1011E000D11D0FB6F894DEBF0FBECDBFED0108953F
:0411F000F894FFCFA1
:1011F40054656D700025642563432020007C002E17
:101204000054696D6572205374617274656400548E
:10121400696D6520757021004D696E000C12120C09
:10122400000000000004021F020400000A15110A55
:10123400040000000305090B0B1818001F0E0E0410
:101244000404040401010505151515000E11111FF0
:0A1254001F1F1F00010001000F0022
:00000001FF
